:1000000080EF00F00000000000EF00F000000000B2
:0A0010000000000000000000F3D71C
:10001C0052C002F053C003F002C000F003C001F064
:10002C00024A032A00C0E9FF01C0EAFFEE5201E0D8
:10003C00F3D75250025C006E53500358016E010E00
:08004C00005E000E015A1200D3
:100054004A6A4B6A4C6A4D6A4E6A4F6A506A516AE0
:1000640048C052F049C053F0D7DF00C04EF001C081
:100074004FF046C052F047C053F0CEDF00C050F0FE
:1000840001C051F04F50015C02E14E50005C02E2AD
:10009400006A27D051504D5C02E150504C5C20E284
:1000A4004C504624E96E4D504720EA6E4A5048248D
:1000B400D96E4B504920DA6EEE50DE180CE14A4AF4
:1000C4004B2A4F504B1802E14A504E1803E1010EDF
:1000D400006E07D002D04A6A4B6A4C4A4D2ADAD7DE
:0400E400006A12009C
:0800E8000F0EC16E949012008E
:1000F0000900F5CFE6FF0006FBE10106F9E1120079
:10010000ABEC00F0F1DF1B0E466E000E476E150ED5
:10011000486E000E496E9EDF0050010AD8B48280FE
:04012000F2D7FFD73C
:1001560010EE15F0310E006E010E016E240EF66ED5
:0E016600010EF76E000EF86E78EC00F012003D
:0601240068656C6C6F00C1
:10012A002068656C6C6F6D6F68616D6564207361C2
:10013A006D79206B617373656D2020636F756C74C4
:0B014A00616E206D656B61777920000D
:020000040030CA
:0D000100C21F1EFF8785FF0FC00FE00F40DC
:00000001FF
