:04000000ADEF05F06B
:1000080000C016F001C015F0E1CF17F0E2CF18F0EC
:10001800F29E9DAA2CD0E4DB00C02DF21FD0000E6A
:10002800006E0101FE51005C02E1FD51010800E291
:100038001DD001012F0EFD25E16E020EFE21E26E9C
:10004800E66A14D001012F0EFD25E16E020EFE2195
:10005800E26E2DC2E6FFFD4BFE2B08D002012D51AA
:100068000A0ADDE02D510D0AE4E0ECD79D9AF28EE4
:1000780016C000F015C001F017C0E1FF18C0E2FF7C
:02008800110065
:04008A000000120060
:10008E00080E0C6E230E0D6E0D2EFED70C2EFCD709
:02009E0012004E
:0C00A000100E0D6E0D2EFED70000120099
:1000AC003BC400F004013B07005228E037C4E9FFD1
:1000BC0038C4EAFFEE50000A0CE037C4E9FF38C43C
:1000CC00EAFF39C4D9FF3AC4DAFFEE50DE1801E179
:1000DC000FD037C4E9FF38C4EAFF39C4D9FF3AC49A
:1000EC00DAFFDE50EE5C006E016A000E015A08D099
:1000FC000401374B382B394B3A2BD2D7006A016AA3
:02010C001200DF
:10010E0037C4E9FF38C4EAFFEE500401391905E19E
:10011E0037C400F038C401F010D037C400F038C432
:10012E0001F0374B382B00C0E9FF01C0EAFFEECFDC
:0C013E0000F00052E5E1006A016A1200C6
:10014A00040137BF02D0829601D0828637BD02D021
:10015A00829401D0828437BB02D0829201D08282FB
:10016A0037B902D0829001D082800101C0B102D099
:10017A00828801D08298828A83DF829A040137B703
:10018A0002D0829601D0828637B502D0829401D0FD
:10019A00828437B302D0829201D0828237B102D0F0
:1001AA00829001D082800101C0B102D0828801D040
:1001BA008298828A65DF829AC0A102D063DF01D069
:0401CA006ADF1200D6
:1001CE0037C402F038C403F002C000F003C001F0DF
:1001DE00024A032A00C0E9FF01C0EAFFEE5201E025
:1001EE00F3D704013751025C006E38510358016E8B
:0A01FE00010E005E000E015A12000F
:0E020800ACB202D00000FCD731C4ADFF120032
:1002160031C402F032C403F034C400F035C401F036
:10022600010E0401345F000E355B0050011009E039
:1002360002C0E1FF03C0E2FF33C4E6FF024A032A1D
:0C024600EBD731C400F032C401F012000C
:10025200000E0401321902E1000E311934E031C4FA
:10026200E9FF32C4EAFFEE522EE033C437F434C45D
:1002720038F4ACDF00C03BF431C437F432C438F494
:1002820033C439F434C43AF410DF000E011802E129
:10029200000E001805E131C400F032C401F015D09F
:1002A200010E04013125376F000E3221386F33C43D
:1002B200E9FF34C4EAFFEECF39F428DF00C031F49D
:0C02C20001C032F4C5D7006A016A1200C6
:0E02CE000101C09131C437F439DFC081120044
:1002DC0031C404F032C405F004013551361124E068
:1002EC00010E355F000E365B04C002F005C003F052
:1002FC00044A052A33C400F034C401F0334B342BC8
:10030C0000C0E9FF01C0EAFF02C0E1FF03C0E2FF49
:10031C00EECFE6FF02C0E9FF03C0EAFFEECF00F02C
:10032C00005201E101D0D8D735C400F036C401F039
:10033C00010E355F000E365B0050011008E004C062
:10034C00E1FF05C0E2FFE66A044A052AEDD731C495
:08035C0000F032C401F01200B0
:1003640010D0800E0401256F1AD0C00E256F17D04F
:10037400940E256F14D0D40E256F11D0800E256FE6
:100384000ED004012551010AECE02551020AEDE0EA
:100394002551030AEDE02551040AEDE0EFD72605C7
:1003A400006E2551002600C025F400C037F4CBDED2
:1003B400C0910401296B29512725E96E000E2821DB
:1003C400EA6EEE520CE029512725E96E000E282131
:1003D400EA6EEECF31F479DF0401292BECD7010169
:0403E400C0811200C2
:1003E80025C431F426C432F427C433F428C434F4C1
:1003F8002CDF040129510026000E012200C02FF431
:1004080001C030F400C031F401C032F42AC433F41E
:100418002BC434F41ADF04012C510024356F000E6C
:100428000120366F2F51355F3051365B2DC431F4C2
:100438002EC432F42FC433F430C434F4000E366FB3
:0404480049DF120076
:10044C000401296B2A6B2B6B2C6B2D6B2E6B2F6B7A
:10045C00306B27C437F428C438F4B3DE00C02DF455
:10046C0001C02EF425C437F426C438F4AADE00C02B
:10047C002FF401C030F42E51015C02E12D51005CCF
:10048C0002E2006A27D030512C5D02E12F512B5D26
:10049C0020E22B512525E96E2C512621EA6E29519B
:1004AC002725D96E2A512821DA6EEE50DE180CE180
:1004BC00294B2A2B2E512A1902E129512D1903E11E
:1004CC00010E006E07D002D0296B2A6B2B4B2C2B04
:0604DC00DAD7006A1200ED
:1004E2002F0E0401316F020E326F336BFDC134F4F3
:1004F200FEC135F48FDE02012E6B0101FD6BFE6B36
:020502001200E5
:100504000401286B25C4E9FF26C4EAFFEECF27F4D3
:100514002751000A0EE027C431F474DE0401282BAD
:1005240028512525E96E000E2621EA6EEECF27F428
:04053400EFD71200EB
:10053800949A94989490949294949496829A829887
:1005480082968294829282909EDD9DDD9CDD8282DD
:100558008280828A96DD829A96DD828A92DD829AEC
:1005680092DD828A8EDD829A8EDD8290828A89DD92
:10057800829A89DD828A85DD829A82928286828A3F
:1005880080DD829A80DD82968280828A7ADD829AF4
:100598008290828A76DD829A76DD828A72DD829AFC
:1005A8008280828A6EDD829A6EDD8290828A69DD1F
:1005B800829A8286828482828280828A62DD829A9C
:0805C80062DD0101C081120097
:1005D000080E0201256F020E266F310E276F040EE2
:1005E000286FE80E296F070E2A6F000E2B6F000E82
:1005F0002C6FFF0E1D6FFF0E1E6F000E1F6F000E83
:10060000206FFF0E216FFF0E226F000E236F000E72
:10061000246FAC8A900EAB6E948E949C9EAA03D0ED
:08062000AECF00F0FBD7120081
:08062800F28EF28C9D8A120093
:1006300023C425F424C426F465DF0D0E316FE4DDF8
:0A0640000A0E0401316FE0DD120024
:10064A0002012E5301E1FCD72F0E0401256F020E81
:10065A00266F950E276F010E286FF3DE0050010AF0
:10066A0003E1010E236F1FD02F0E256F020E266F96
:10067A00980E276F010E286FE4DE0050010A03E18D
:10068A00010E236F10D02F0E256F020E266F930EC8
:10069A00276F010E286FD5DE0050010A03E1010E13
:0E06AA00236F01D0236B18DF23C400F0120071
:1006B8000D0E0401316FA4DD0A0E0401316FA0DDB7
:0206C80012001E
:1006CA0002012E5301E1FCD707DF010E0401376F47
:1006DA0037DD02012E5301E1FCD72F0E0401256FED
:1006EA00020E266F6A0E276F000E286F060E296FFC
:1006FA00680E2A6F000E2B6F2C6BDF0E2D6F010E0A
:10070A002E6F6DDE010E256F010E266FDF0E276F2D
:10071A00010E286F22DE2F0E0401256F020E266FAE
:10072A00710E276F000E286F070E296F830E2A6F2E
:10073A00000E2B6F2C6BFF0E2D6F010E2E6F4FDEEE
:10074A00010E256F020E266FDF0E276F010E286F2E
:10075A0004DE2F0E0401256F020E266F790E276F15
:10076A00000E286F070E296F810E2A6F000E2B6F5D
:10077A002C6BC10E2D6F010E2E6F31DE010E256F0F
:10078A00030E266FDF0E276F010E286FE6DD2F0E90
:10079A000401256F020E266F190E276F000E286FAF
:1007AA00080E296F220E2A6F000E2B6F2C6BA20ED9
:1007BA002D6F010E2E6F13DE010E256F040E266FAC
:0E07CA00DF0E276F010E286FC8DD86DE1200DD
:1007D8000900F5CFE6FF0006FBE10106F9E112008A
:1007E800AECF01F0ABA202D0AB98AB8801C000F04D
:0207F8001200ED
:1007FA0002012E6B0101FD6BFE6B2F0E0401316F9E
:10080A00020E326F336BF40E346F010E356FFEDC5D
:10081A00010E256F010E266F470E276F000E286FF7
:10082A009CDD010E0401256F020E266F570E276FFD
:10083A00000E286F92DD310E0401236F000E246F23
:10084A00F2DEFEDE0050010A01E0FBD7060E0B6E57
:10085A00130E0C6EAD0E0D6E0D2EFED70C2EFCD7A0
:10086A000B2EFAD700000000010E0401376F68DC76
:10087A00010E0401256F010E266F340E276F000E3C
:10088A00286F6BDD010E0401256F020E266F850E9F
:10089A00276F000E286F61DD310E0401236F010EF0
:1008AA00246FC1DECDDE0050010A01E0FBD7060E3F
:1008BA000B6E130E0C6EAD0E0D6E0D2EFED70C2E9A
:1008CA00FCD70B2EFAD700000000010E0401376F87
:1008DA0037DC010E0401256F010E266F3A0E276FD1
:1008EA00010E286F3ADD010E0401256F020E266FF4
:1008FA00130E276F010E286F30DD250E0401236FBA
:10090A00010E246F90DE9CDE0050010A01E0FBD745
:10091A00060E0B6E130E0C6EAD0E0D6E0D2EFED75F
:10092A000C2EFCD70B2EFAD700000000010E040192
:10093A00376F06DC010E0401256F010E266F470E84
:10094A00276F010E286F09DD010E0401256F020EC3
:10095A00266F750E276F010E286FFFDC870E0401C4
:10096A00236F010E246F5FDE6BDE0050010A01E087
:10097A00FBD7060E0B6E130E0C6EAD0E0D6E0D2E02
:10098A00FED70C2EFCD70B2EFAD700000000010E62
:10099A000401376FA5EC00F0010E0401256F010E6A
:1009AA00266F5B0E276F010E286FD7DC6C0E0401D1
:1009BA00256F010E266FA1DD220E316F20DC110E8C
:1009CA000401256F010E266F98DD220E316F17DCA8
:1009DA002C0E0401316F13DCB30E0401256F000ED7
:1009EA00266F8BDD220E316F0ADC61DE29DE0050B4
:1009FA00010A0BE0010E0401256F020E266FC90ED3
:100A0A00276F000E286FA9DC1ED0010E0401376F74
:100A1A00A5EC00F0010E0401256F010E266F970E5A
:100A2A00276F000E286F99DC060E0B6E130E0C6EE4
:100A3A00AD0E0D6E0D2EFED70C2EFCD70B2EFAD74F
:100A4A0000000000A9D7010E0401376FA5EC00F0E1
:100A5A00010E0401256F010E266FA10E276F000EED
:100A6A00286F7BDCD10E0401256F000E266F45DD51
:100A7A00E7DD0050010A01E0FBD7010E0401256FF2
:100A8A00020E266FED0E276F000E286F66DC060E2B
:100A9A000B6E130E0C6EAD0E0D6E0D2EFED70C2EB8
:100AAA00FCD70B2EFAD700000000010E0401376FA5
:100ABA00A5EC00F0010E0401256F010E266FFC0E55
:100ACA00276F000E286F49DCDC0E0401256F000E2B
:100ADA00266F13DD2C0E316F04EC01F0EA0E0401CF
:100AEA00256F000E266F09DDE2DDAADD0050010A3E
:0A0AFA0001E0FBD7F1DCE4DD12009F
:100B0400B886B06A080EAF6EAC8460DD8BDD12DD92
:100B14000C0E0401376FA5EC00F0010E0401256FE3
:100B2400010E266F240E276F000E286F19DC060EA7
:100B34000B6E130E0C6EAD0E0D6E0D2EFED70C2E1D
:100B4400FCD70B2EFAD700000000010E0401376F0A
:060B5400A5EC00F0120008
:0C0B5A0078EC06F0D2DF4CDEFFD7FFD7AE
:100CF00010EE19F0890E006E020E016E660EF66E91
:0E0D00000B0EF76E000EF86EECEC03F0120016
:090B66005354414D41432C22007F
:020B6F00220062
:0D0B71005749464920636F6E666967200092
:030B7E00415400DF
:100B8100444953434F4E4E454354494E47205749DC
:030B9100464900D2
:100B940072657374617274696E672077696669003F
:100BA400706C6561736520776169742E2E2E2E2E0C
:010BB4000040
:020BB50022001C
:070BB700415049502C2200BF
:080BBE0041504D41432C22007F
:080BC60053544149502C220058
:020BCE00220003
:020BD000220001
:100BD200706C656173652077616974202E2E2E2EEC
:020BE2002E00E3
:0A0BE400747279206167696E650084
:100BEE00636865636B20636F6E6E656374696F6EA9
:020BFE002000D5
:100C0000656E676F666D6963726F3031313131398E
:060C1000383632303300DB
:080C16007375636365737300DD
:0B0C1E0041542B43574A41503D3F001A
:0E0C290041542B43495053455645523D31002E
:030C370038300052
:0F0C3A005749464920434F4E4E454354454400C9
:100C4900636F6E666967757265207463702073657A
:050C59007276657200D7
:020C5E004D0047
:100C6000706C656173652077616974202E2E2E2E5D
:020C70002E0054
:0C0C720041542B43574D4F44453D330087
:090C7E0041542B43575141500031
:0D0C870053455454494E47204D4F444500FD
:100C940053455454494E4720434F4E4E45435449BF
:040CA4004F4E20008F
:100CA800636F6E6E656374696E6720746F20415060
:010CB800003B
:090CB90041542B43574A415000FD
:100CC200706C656173652077616974202E2E2E2EFB
:020CD2002E00F2
:0C0CD40041542B4349504D55583D310010
:020CE0003E00D4
:030CE2006F6B0035
:0A0CE5006E6F206368616E676500A2
:020000040030CA
:0D000100021F1EFF8381FF0FC00FE00F40A4
:00000001FF
