:10000000D7EF02F00000000000EF00F00000000059
:0A0010000000000000000000F3D71C
:0A001C00210E0D6E0D2EFED712000E
:100026000F0E0C6E470E0D6E0D2EFED70C2EFCD746
:06003600000000001200B2
:06003C00000000001200AC
:10004200000180BF02D0829601D0828680BD02D09C
:10005200829401D0828480BB02D0829201D08282BB
:1000620080B902D0829001D0828059B002D08288B9
:1000720001D08298828AE1DF829A80B702D082968A
:1000820001D0828680B502D0829401D0828480B36E
:1000920002D0829201D0828280B102D0829001D0BD
:1000A200828059B002D0828801D08298828AC5DFCC
:0E00B200829A59A002D0B6DF01D0AFDF120053
:1000C0007BC0E9FF7CC0EAFFEE507D1805E17BC0F4
:1000D00000F07CC001F010D07BC000F07CC001F0CB
:1000E0007B4A7C2A00C0E9FF01C0EAFFEECF00F0A6
:0A00F0000052E6E1006A016A120006
:1000FA007FC000F07F06005227E07BC0E9FF7CC08A
:10010A00EAFFEE50000A0CE07BC0E9FF7CC0EAFF80
:10011A007DC0D9FF7EC0DAFFEE50DE1801E10FD0B4
:10012A007BC0E9FF7CC0EAFF7DC0D9FF7EC0DAFF51
:10013A00DE50EE5C006E016A000E015A07D07B4A5F
:0E014A007C2A7D4A7E2AD4D7006A016A120000
:0C01580059907BC080F071DF59801200CC
:100164007BC002F07CC003F002C000F003C001F0C9
:10017400024A032A00C0E9FF01C0EAFFEE5201E08F
:10018400F3D77B50025C006E7C500358016E010E65
:08019400005E000E015A12008A
:10019C00949A94989490949294949496829A829827
:1001AC00829682948292829038DF37DF36DF8282A9
:1001BC008280828A3DDF829A30DF828A39DF829A9E
:1001CC002CDF828A35DF829A28DF8290828A30DFA8
:1001DC00829A23DF828A2CDF829A82928286828A9A
:1001EC0027DF829A1ADF82968280828A21DF829AA6
:1001FC008290828A1DDF829A10DF828A19DF829AAE
:10020C008280828A15DF829A08DF8290828A10DFD0
:10021C00829A8286828482828280828A09DF829A92
:06022C00FCDE5980120007
:10023200AECF01F0ABA202D0AB98AB8801C000F008
:020242001200A8
:1002440075C004F076C005F079507A1024E0010EF0
:10025400795E000E7A5A04C002F005C003F0044A25
:10026400052A77C000F078C001F0774A782A00C0E8
:10027400E9FF01C0EAFF02C0E1FF03C0E2FFEECFE5
:10028400E6FF02C0E9FF03C0EAFFEECF00F0005230
:1002940001E101D0D9D779C000F07AC001F0010E94
:1002A400795E000E7A5A0050011008E004C0E1FFA4
:1002B40005C0E2FFE66A044A052AEDD775C000F0DE
:0602C40076C001F01200FB
:1002CA00FF0E476EFF0E486EFF0E496EFF0E4A6E16
:1002DA00320E436E020E446E000E456E000E466EDE
:1002EA00BE0E3F6E030E406E000E416E000E426E51
:1002FA00FF0E4B6EFF0E4C6E000E4D6E000E4E6ED4
:10030A00AC8A900EAB6E948E949C9EAA03D0AECF0C
:06031A0000F0FBD7120009
:10032000FF0E5A6EFF0E5B6EFF0E5C6EFF0E5D6E73
:10033000C26A211C006E0050C116070EC012C08E8A
:04034000C280120065
:100344000FD0800E756E19D0C00E756E16D0940E37
:10035400756E13D0D40E756E10D0800E756E0DD0E0
:100364007550010AEEE07550020AEEE07550030A7A
:10037400EEE07550040AEEE0F0D77604006E755096
:10038400002600C075F000C080F059DE5990796AEB
:1003940079507724E96E000E7820EA6EEE520BE075
:1003A40079507724E96E000E7820EA6EEECF7BF068
:0A03B400D1DE792AEDD7598012003E
:0A03BE00000E9EBA010E006E120040
:1003C800000E761802E1000E751833E075C0E9FFDB
:1003D80076C0EAFFEE522DE077C07BF078C07CF063
:1003E800BDDE00C07FF075C07BF076C07CF077C0C2
:1003F8007DF078C07EF07DDE000E011802E1000E6F
:10040800001805E175C000F076C001F014D0010EA7
:1004180075247B6E000E76207C6E77C0E9FF78C06D
:10042800EAFFEECF7DF048DE00C075F001C076F03F
:08043800C7D7006A016A120037
:10044000B886B06ACF0EAF6EAC843FDFA7DE68DF40
:100450000C0E0001806FF5DD010E756E010E766EDB
:10046000150E776E000E786E6DDF0B0E0B6E260E7E
:100470000C6E5D0E0D6E0D2EFED70C2EFCD70B2EC6
:10048000FAD7000000000C0E806FDBDD010E806FDC
:04049000D8DD1200A1
:100494000900F5CFE6FF0006FBE10106F9E11200D1
:1004A400746A68C075F069C076F06AC077F06BC092
:1004B40078F088DF6C500026000E012200C072F034
:1004C40001C073F000C075F001C076F06DC077F024
:1004D4006EC078F077DF6F500026000E0122725054
:1004E400005E7350015A00C074F070C075F071C0A2
:1004F40076F072C077F073C078F000C079F0000E27
:100504007A6E9EDE74507024E16E000E7120E26EED
:04051400E66A120081
:100518006E6A6F6A6C5241E06C50FF0AD8A46C0690
:100528004ADF0050000A01E1FBD77FDE00C06DF012
:100538006E506824E16E000E6920E26E00C0E6FF8E
:100548006E2A6F506A24E96E000E6B20EA6EEE5038
:100558006D1802E16F2A09D06F6A6AC0E9FF6BC0A3
:10056800EAFFEE506D18D8B46F2A6F506A24E96E0E
:10057800000E6B20EA6EEE50000A0EE16F506E5CC2
:10058800006E016A000E015A00506824E16E0150A5
:100598006920E26EE66A06D0BDD768C0E1FF69C08F
:0605A800E2FFE66A12000A
:1005AE002EEC03F046DF04DF0050010A45E1260E73
:1005BE00686E000E696E1C0E6A6E000E6B6E0E0E6D
:1005CE006C6EA3DF260E686E000E696E1A0E6A6ED2
:1005DE00000E6B6E010E6C6E240E6D6E000E6E6E46
:1005EE006F6A5E0E706E000E716E55DF010E756EC7
:1005FE00010E766E5E0E776E000E786E9CDE260E07
:10060E00686E000E696E220E6A6E000E6B6E010E23
:10061E006C6E1F0E6D6E000E6E6E6F6A4F0E706EEC
:10062E00000E716E38DF010E756E070E766E4F0E70
:0C063E00776E000E786E7FDEB6D7FFD717
:10065C0010EE15F0110E006E010E016E4A0EF66EC4
:0E066C00060EF76E000EF86E4AEC02F0120059
:05064A007769666900FC
:02064F00410068
:030651004F4B000C
:02065400440060
:010656003073
:0206570043005E
:0206590042005D
:020000040030CA
:0D000100021F1EFF8381FF0FC00FE00F40A4
:00000001FF
