:1000000083EF00F00000000000EF00F000000000AF
:0A0010000000000000000000F3D71C
:10001C0050C002F051C003F002C000F003C001F068
:10002C00024A032A00C0E9FF01C0EAFFEE5201E0D8
:10003C00F3D75050025C006E51500358016E010E04
:08004C00005E000E015A1200D3
:10005400486A496A4A6A4B6A4C6A4D6A4E6A4F6AF0
:1000640046C050F047C051F0D7DF00C04CF001C08B
:100074004DF044C050F045C051F0CEDF00C04EF00A
:1000840001C04FF04D50015C02E14C50005C03E2B2
:10009400006A016A2AD04F504B5C02E14E504A5C20
:1000A40022E24A504424E96E4B504520EA6E4850FF
:1000B4004624D96E49504720DA6EEE50DE180EE120
:1000C400484A492A4D50491802E148504C1805E164
:1000D400010E006E000E016E08D002D0486A496A13
:0C00E4004A4A4B2AD8D7006A016A120071
:0600F000949082901200C2
:1000F6000900F5CFE6FF0006FBE10106F9E1120073
:10010600B2EC00F0F2DF190E446E000E456E150ECD
:10011600466E000E476E9BDF000E011802E1010ECF
:0E012600001802E1828001D08290EDD7FFD751
:1001640010EE15F02F0E006E010E016E340EF66EB9
:0E017400010EF76E000EF86E7BEC00F012002C
:0401340073616D0086
:100138002068656C6C6F6D6F68616D6564207361B4
:100148006D79206B617373656D2020636F756C74B6
:0B015800616E206D656B6177792000FF
:020000040030CA
:0D000100021F1EFF8381FF0FC00FE00F40A4
:00000001FF
