:1000000039EF02F00000000000EF00F000000000F7
:0A0010000000000000000000F3D71C
:0A001C00210E0D6E0D2EFED712000E
:100026000F0E0C6E470E0D6E0D2EFED70C2EFCD746
:06003600000000001200B2
:06003C00000000001200AC
:100042000001ADBF02D0829601D08286ADBD02D042
:10005200829401D08284ADBB02D0829201D082828E
:10006200ADB902D0829001D0828095B102D082884F
:1000720001D08298828AE1DF829AADB702D082965D
:1000820001D08286ADB502D0829401D08284ADB314
:1000920002D0829201D08282ADB102D0829001D090
:1000A200828095B102D0828801D08298828AC5DF8F
:0E00B200829A95A102D0B6DF01D0AFDF120016
:1000C000A8C0E9FFA9C0EAFFEE500001AA1905E1A6
:1000D000A8C000F0A9C001F010D0A8C000F0A9C0CD
:1000E00001F0A84BA92B00C0E9FF01C0EAFFEECF49
:0C00F00000F00052E5E1006A016A120015
:1000FC00A8C002F0A9C003F002C000F003C001F0D8
:10010C00024A032A00C0E9FF01C0EAFFEE5201E0F7
:10011C00F3D70001A851025C006EA9510358016E7F
:0A012C00010E005E000E015A1200E1
:0E01360000019591A8C0ADF081DF9581120007
:10014400ACC000F00001AC07005228E0A8C0E9FFF1
:10015400A9C0EAFFEE50000A0CE0A8C0E9FFA9C05C
:10016400EAFFAAC0D9FFABC0DAFFEE50DE1801E106
:100174000FD0A8C0E9FFA9C0EAFFAAC0D9FFABC04D
:10018400DAFFDE50EE5C006E016A000E015A08D000
:100194000001A84BA92BAA4BAB2BD2D7006A016A4A
:0201A400120047
:1001A60010D0800E0001A26F1AD0C00EA26F17D019
:1001B600940EA26F14D0D40EA26F11D0800EA26F2F
:1001C6000ED00001A251010AECE0A251020AEDE0B4
:1001D600A251030AEDE0A251040AEDE0EFD7A30510
:1001E600006EA251002600C0A2F000C0ADF026DFCE
:1001F6009591A66BA651A425E96E000EA521EA6E7F
:10020600EE520BE0A651A425E96E000EA521EA6E7A
:0E021600EECFA8F08DDFA62BEDD7958112005C
:10022400949A94989490949294949496829A82989E
:100234008296829482928290F4DEF3DEF2DE8282EF
:100244008280828AF9DE829AECDE828AF5DE829AE4
:10025400E8DE828AF1DE829AE4DE8290828AECDE33
:10026400829ADFDE828AE8DE829A82928286828A9B
:10027400E3DE829AD6DE82968280828ADDDE829AEC
:100284008290828AD9DE829ACCDE828AD5DE829AF4
:100294008280828AD1DE829AC4DE8290828ACCDE17
:1002A400829A8286828482828280828AC5DE829A4F
:0802B400B8DE00019581120083
:1002BC00000E0001A31902E1000EA21934E0A2C045
:1002CC00E9FFA3C0EAFFEE522EE0A4C0A8F0A5C03F
:1002DC00A9F00EDF00C0ACF0A2C0A8F0A3C0A9F03A
:1002EC00A4C0AAF0A5C0ABF027DF000E011802E1F4
:1002FC00000E001805E1A2C000F0A3C001F015D05B
:10030C00010E0001A225A86F000EA321A96FA4C0A5
:10031C00E9FFA5C0EAFFEECFAAF0CCDE00C0A2F048
:0C032C0001C0A3F0C5D7006A016A1200EE
:10033800A2C004F0A3C005F00001A651A71124E053
:10034800010EA65F000EA75B04C002F005C003F013
:10035800044A052AA4C000F0A5C001F0A44BA52BAF
:1003680000C0E9FF01C0EAFF02C0E1FF03C0E2FFED
:10037800EECFE6FF02C0E9FF03C0EAFFEECF00F0D0
:10038800005201E101D0D8D7A6C000F0A7C001F003
:10039800010EA65F000EA75B0050011008E004C024
:1003A800E1FF05C0E2FFE66A044A052AEDD7A2C0CC
:0803B80000F0A3C001F01200E7
:1003C0000900F5CFE6FF0006FBE10106F9E11200A6
:1003D00029DF0C0EAD6F35DE010EA26F010EA36F8B
:1003E0001E0EA46F000EA56FDEDE0B0E0B6E260E2A
:1003F0000C6E5D0E0D6E0D2EFED70C2EFCD70B2E47
:0E040000FAD700000000010EAD6F1BDE1200E7
:10040E0096C0A2F097C0A3F098C0A4F099C0A5F032
:10041E004EDF00019A510026000E012200C0A0F00E
:10042E0001C0A1F000C0A2F001C0A3F09BC0A4F0D7
:10043E009CC0A5F03CDF00019D510024A66F000E6C
:10044E000120A76FA051A65FA151A75B9EC0A2F08D
:10045E009FC0A3F0A0C0A4F0A1C0A5F0000EA76F8E
:04046E0064DF120035
:10047200AEEC02F0ACDF2D0E966F000E976F170EEA
:10048200986F000E996F060E9A6F150E9B6F000EF5
:100492009C6F9D6B810E9E6F000E9F6FB7DF010EEA
:1004A200A26F010EA36F810EA46F000EA56F7ADEFC
:1004B2002D0E966F000E976F7B0E986F000E996F40
:1004C200050E9A6F780E9B6F000E9C6F9D6B810ECE
:1004D2009E6F000E9F6F9ADF020EA26F010EA36F36
:0E04E200810EA46F000EA56F5DDEC5D7FFD79B
:10055C0010EE15F06C0E006E010E016EF00EF66EC4
:0E056C00040EF76E000EF86EE0EC01F01200C7
:0204F0002600E4
:0704F200464C4F4F523D0044
:0F04F90057494649204745542054455854200040
:10050800206D6F68616D65642073616D7920697312
:10051800206120676F6F6420464C4F4F523D332651
:10052800524F4F4D3D3120656E67696E656572208B
:1005380068652077696C6C206265206120676F6F41
:0B05480064206D616E61676572200029
:03055300656E00D2
:06055600524F4F4D3D0025
:00000001FF
