:1000000038EF02F00000000000EF00F000000000F8
:0A0010000000000000000000F3D71C
:0A001C00210E0D6E0D2EFED712000E
:100026000F0E0C6E470E0D6E0D2EFED70C2EFCD746
:06003600000000001200B2
:06003C00000000001200AC
:10004200000196BF02D0829601D0828696BD02D070
:10005200829401D0828496BB02D0829201D08282A5
:1000620096B902D0829001D082807CB002D0828880
:1000720001D08298828AE1DF829A96B702D0829674
:1000820001D0828696B502D0829401D0828496B342
:1000920002D0829201D0828296B102D0829001D0A7
:1000A20082807CB002D0828801D08298828AC5DFA9
:0E00B200829A7CA002D0B6DF01D0AFDF120030
:1000C00091C0E9FF92C0EAFFEE500001931905E1EB
:1000D00091C000F092C001F010D091C000F092C029
:1000E00001F0914B922B00C0E9FF01C0EAFFEECF77
:0C00F00000F00052E5E1006A016A120015
:1000FC0091C002F092C003F002C000F003C001F006
:10010C00024A032A00C0E9FF01C0EAFFEE5201E0F7
:10011C00F3D700019151025C006E92510358016EAD
:0A012C00010E005E000E015A1200E1
:0C0136007C9080C096F082DF7C8012007C
:1001420095C000F000019507005228E091C0E9FF38
:1001520092C0EAFFEE50000A0CE091C0E9FF92C0A3
:10016200EAFF93C0D9FF94C0DAFFEE50DE1801E136
:100172000FD091C0E9FF92C0EAFF93C0D9FF94C0AB
:10018200DAFFDE50EE5C006E016A000E015A08D002
:100192000001914B922B934B942BD2D7006A016AA8
:0201A200120049
:1001A40010D0800E00018B6F1AD0C00E8B6F17D049
:1001B400940E8B6F14D0D40E8B6F11D0800E8B6F76
:1001C4000ED000018B51010AECE08B51020AEDE0E4
:1001D4008B51030AEDE08B51040AEDE0EFD78C0557
:1001E400006E8B51002600C08BF000C096F027DF14
:1001F4007C907F6A7F508D25E96E000E8E21EA6E19
:10020400EE520BE07F508D25E96E000E8E21EA6ED2
:0E021400EECF80F08EDF7F2AEDD77C801200C7
:10022200949A94989490949294949496829A8298A0
:100232008296829482928290F5DEF4DEF3DE8282EE
:100242008280828AFADE829AEDDE828AF6DE829AE3
:10025200E9DE828AF2DE829AE5DE8290828AEDDE31
:10026200829AE0DE828AE9DE829A82928286828A9B
:10027200E4DE829AD7DE82968280828ADEDE829AEB
:100282008290828ADADE829ACDDE828AD6DE829AF3
:100292008280828AD2DE829AC5DE8290828ACDDE16
:1002A200829A8286828482828280828AC6DE829A50
:0602B200B9DE7C801200A1
:1002B800000E00018C1902E1000E8B1934E08BC08E
:1002C800E9FF8CC0EAFFEE522EE08DC091F08EC09F
:1002D80092F010DF00C095F08BC091F08CC092F0C6
:1002E8008DC093F08EC094F028DF000E011802E153
:1002F800000E001805E18BC000F08CC001F015D08D
:10030800010E00018B25916F000E8C21926F8DC01C
:10031800E9FF8EC0EAFFEECF93F0CEDE00C08BF08F
:0C03280001C08CF0C5D7006A016A120009
:100334008BC004F08CC005F000018F51901124E0B3
:10034400010E8F5F000E905B04C002F005C003F045
:10035400044A052A8DC000F08EC001F08D4B8E2B0F
:1003640000C0E9FF01C0EAFF02C0E1FF03C0E2FFF1
:10037400EECFE6FF02C0E9FF03C0EAFFEECF00F0D4
:10038400005201E101D0D8D78FC000F090C001F035
:10039400010E8F5F000E905B0050011008E004C056
:1003A400E1FF05C0E2FFE66A044A052AEDD78BC0E7
:0803B40000F08CC001F0120002
:1003BC000900F5CFE6FF0006FBE10106F9E11200AA
:1003CC002ADF0C0E0001966F36DE010E8B6F010ECC
:1003DC008C6F1D0E8D6F000E8E6FDEDE0B0E0B6E96
:1003EC00260E0C6E5D0E0D6E0D2EFED70C2EFCD750
:1003FC000B2EFAD700000000010E966F1CDE1200C7
:10040C0081C08BF082C08CF083C08DF084C08EF0E4
:10041C004DDF000185510026000E012200C07DF049
:10042C0001C07EF000C08BF001C08CF086C08DF056
:10043C0087C08EF03BDF0001885100248F6F000EC7
:10044C000120906F7D508F5F7E50905B89C08BF048
:10045C008AC08CF07DC08DF07EC08EF0000E906F47
:04046C0063DF120038
:1004700085EC02F0ABDF2C0E816F000E826F180E40
:10048000836F000E846F050E856F150E866F000E4C
:10049000876FFF0E886F680E896F000E8A6FB6DF58
:1004A000010E8B6F010E8C6F680E8D6F000E8E6FBC
:0604B00079DEE1D7FFD761
:10050A0010EE15F0530E006E010E016EB60EF66E69
:0E051A00040EF76E000EF86EDEEC01F012001B
:0304B60068650076
:0504B900676F6F640095
:0F04BE005749464920474554205445585420007B
:1004CD00206D6F68616D65642073616D792069734E
:1004DD00206120676F6F6420656E67696E65657258
:1004ED002068652077696C6C206265206120676FDC
:0C04FD006F64206D616E61676572200005
:020000040030CA
:0D000100021F1EFF8381FF0FC00FE00F40A4
:00000001FF
