:10000000E1EF02F00000000000EF00F0000000004F
:0A0010000000000000000000F3D71C
:10001C008382839483968388838A839C839E838044
:02002C001200C0
:10002E008392838483968388839A838C839E838032
:10003E00070E0B6E170E0C6E6A0E0D6E0D2EFED782
:0C004E000C2EFCD70B2EFAD7000012007D
:10005A008392838483968388839A838C839E838006
:10006A000D0E0B6E2D0E0C6ED70E0D6E0D2EFED7CD
:0E007A000C2EFCD70B2EFAD70000000012004F
:10008800000E2C1802E1010E2B181CE1000E281896
:1000980002E1010E271816E1000E2E1802E1010EEA
:1000A8002D1810E1000E261802E1010E25180AE1AC
:1000B800000E321802E1000E311804E1010E316E13
:1000C800000E326E000E2C1802E1000E2B1813E100
:1000D800000E281802E1010E27180DE1000E2E1857
:1000E80002E1010E2D1807E1000E261802E1010EAB
:1000F800251801E11AD0000E2C1802E1010E2B1868
:1001080013E1000E281802E1010E27180DE1000E78
:100118002C1802E1000E2B1807E1000E261802E148
:10012800010E251801E101D000D082A207D082B4C7
:1001380005D082A003D082A601D00AD082A207D01F
:1001480082A405D082A003D082B601D001D000D00D
:1001580082B297D082B495D082B093D082B691D033
:10016800000E341802E1000E3318D8A48AD0020E0B
:100178000B6E040E0C6EBA0E0D6E0D2EFED70C2EE5
:10018800FCD70B2EFAD70000010E336E000E346E2A
:10019800800E006E800E2A18005C02E129500008CB
:1001A80010E2800E2018006E800E005C02E1000E46
:1001B8001F5C07E2000E301802E1010E2F1801E162
:1001C8001AD0800E2A18006E800E005C02E1000E24
:1001D800295C10E2800E006E800E2018005C02E19F
:1001E8001F50000807E2000E301802E1010E2F1818
:1001F80001E101D005D0010E1D5E000E1E5A41D04E
:10020800800E2A18006E800E005C02E1000E295C48
:1002180010E2800E2018006E800E005C02E1000ED5
:100228001F5C07E2000E221802E1010E211801E10D
:1002380021D0800E2018006E800E005C02E1000EB6
:100248001F5C07E2000E2A1802E1000E291801E1DE
:1002580011D0800E2A18006E800E005C02E1000E9C
:10026800295C07E2000E201802E1000E1F1801E1C8
:1002780001D005D0010E1D5E000E1E5A02D01D4A87
:100288001E2A82B004D082B602D0336A346A1200C1
:100298008392839483968398839A839C839E839086
:0202A800120042
:1002AA008382839483868398838A839C838E8390B4
:1002BA00070E0B6E170E0C6E6A0E0D6E0D2EFED704
:0C02CA000C2EFCD70B2EFAD700001200FF
:1002D600800E1E18006E800E2A18005C02E129505E
:1002E6001D5C02E2CEDE0AD02A501E1802E11D5025
:1002F600291804E1CEDF1D6A1E6A01D0E9D71D6AFE
:040306001E6A120059
:10030A002DB002D0829001D082802BB002D082928E
:10031A0001D0828227B002D0829401D0828425B093
:0A032A0002D0829601D082861200F4
:10033400800E2A18006E800E1E18005C02E11D500B
:10034400295C02E29FDE0AD02A501E1802E11D50E9
:10035400291804E19FDF1D6A1E6A01D0E9D71D6ACE
:040364001E6A1200FB
:10036800800E1E18006E800E2018005C02E11F50DF
:100378001D5C02E285DE0AD020501E1802E11D50E5
:100388001F1804E185DF1D6A1E6A01D0E9D71D6ABE
:040398001E6A1200C7
:10039C00000E241802E1020E231805E158DE76DF68
:1003AC00236A246A17D0000E241802E1040E2318C5
:1003BC0006E12EDE36DE6ADF236A246A0BD0000EDD
:1003CC00241802E1030E231805E122DE68DF5EDF4C
:0603DC00236A246A1200EE
:1003E200800E2018006E800E1E18005C02E11D5067
:1003F2001F5C02E248DE0AD020501E1802E11D50A6
:100402001F1804E148DF1D6A1E6A01D0E9D71D6A80
:040412001E6A12004C
:100416000900F5CFE6FF0006FBE10106F9E112004F
:100426001750155C016E18501658026E01C029F05F
:1004360002C02AF019501B5C1F6E1A501C58206E01
:10044600800E006E800E0218005C02E1015000086A
:100456000EE2800E006E800E2018005C02E11F5036
:10046600000805E27EDF97DF33DF95DFA6D0800E3A
:100476002A18006E800E005C02E1000E295C15E26F
:10048600800E2018006E800E005C02E1000E1F5CDC
:100496000CE2010E216E000E226E34DF9FDF7BDF41
:1004A60046DF79DF216A226A88D0000E2A1802E127
:1004B600000E29180CE1800E006E800E2018005CDC
:1004C60002E11F50000803E21DDF4BDF76D0000E6D
:1004D6002A1802E1000E29180CE1800E2018006E81
:1004E600800E005C02E1000E1F5C03E20BDF76DF8C
:1004F60064D0800E006E800E2A18005C02E129503E
:1005060000080BE2000E201802E1000E1F1805E19C
:10051600F9DE41DFDDDE3FDF50D0800E2A18006EA7
:10052600800E005C02E1000E295C0BE2000E201832
:1005360002E1000E1F1805E1E5DE2DDFF8DE2BDFF8
:100546003CD0800E006E800E2A18005C02E1295015
:10055600000816E2800E2018006E800E005C02E194
:10056600000E1F5C0DE2CEDE16DFB2DE010E2F6E30
:10057600000E306E10DF32DF0EDF2F6A306A1DD0BC
:10058600800E2A18006E800E005C02E1000E295CC7
:1005960014E2800E006E800E2018005C02E11F50EF
:1005A60000080BE2AFDEDDDE010E2F6E000E306EB0
:0C05B600F2DEBDDEF0DE2F6A306A1200BB
:1005C200F2EC02F094809482948494862BDFFED71E
:0205D200FFD751
:1005E40010EE15F0100E006E010E016ED40EF66EB4
:0E05F400050EF76E000EF86E0BEC02F0120012
:0205D400000025
:0205D600000023
:0205D800000021
:0205DA0000001F
:0205DC0000001D
:0205DE0000001B
:0205E000000019
:0205E200000017
:020000040030CA
:0D000100021F1EFF8381FF0FC00FE00F40A4
:00000001FF
