:04000000A5EF00F078
:1000080000C016F001C015F0F29E9EAA2AD03FD873
:1000180000C015F21DD0000E006E02011051005CE8
:1000280002E10F51010800E21BD01B0E0F25E16E03
:10003800000E1021E26EE66A13D01B0E0F25E16E4A
:10004800000E1021E26E15C2E6FF0F4B102B08D0F0
:10005800020115510A0ADFE015510D0AE6E0EDD755
:0E0068009E9AF28E16C000F015C001F0110035
:0E007600ACB202D00000FCD721C2ADFF1200D8
:100084000D0E0201216FF5DF0A0E0201216FF1DF6F
:02009400120058
:10009600AECF01F0ABA202D0AB98AB8801C000F0A6
:0200A600120046
:1000A8001EC2F6FF1FC2F7FF20C2F8FF0900F5CFF6
:1000B80000F0005211E01EC2F6FF1FC2F7FF20C277
:1000C800F8FF0900F5CF21F2D2DF010E02011E2749
:0A00D800000E1F232023E4D71200BE
:1000E2000900F5CFE6FF0006FBE10106F9E1120087
:1000F200760E176E000E186E210E196E020E1A6E13
:10010200960E0201116F000E126F000E136F000E99
:10011200146FFF0E1A6FFF0E1B6F000E1C6F000E86
:100122001D6FFF0E166FFF0E176F000E186F000E79
:10013200196FAC8A900EAB6E948E949C9EAA03D0DB
:08014200AECF00F0FBD7120064
:10014A00B886B06A670EAF6EAC84CEDF0201880E45
:10015A001E6F010E1F6F000E206FA1DF8EDF0B0EC8
:10016A000B6E260E0C6E5D0E0D6E0D2EFED70C2E2E
:0E017A00FCD70B2EFAD700000000E8D7FFD705
:0D01880041542B43495053544152543D0003
:020000040030CA
:0D000100021F1EFF8381FF0FC00FE00F40A4
:00000001FF
