:1000000063EF03F00000000000EF00F000000000CC
:0A0010000000000000000000F3D71C
:0A001C00210E0D6E0D2EFED712000E
:100026000F0E0C6E470E0D6E0D2EFED70C2EFCD746
:06003600000000001200B2
:06003C00000000001200AC
:1000420055BE02D0829601D0828655BC02D08294DF
:1000520001D0828455BA02D0829201D0828255B8F0
:1000620002D0829001D0828025B002D0828801D055
:100072008298828AE2DF829A55B602D0829601D0B5
:10008200828655B402D0829401D0828455B202D0C5
:10009200829201D0828255B002D0829001D08280B9
:1000A20025B002D0828801D08298828AC6DF829AE5
:0C00B20025A002D0B7DF01D0B0DF1200A3
:1000BE000134083609360450085E0550D8A0053CB8
:1000CE00095E003601360F0E0C6E01340836093605
:1000DE00045000A006D0085E0550D8A0053C095E6D
:1000EE0005D008260550D8B0053C09260036013645
:1000FE000C2EEBD700B006D0045008260550D8B011
:08010E00053C09260000120067
:0E011600ACB202D00000FCD754C0ADFF120006
:0C012400259054C055F08BDF25801200A0
:10013000526A4FC0E9FF50C0EAFFEECF51F0515074
:10014000000A0DE051C054F0E6DF522A52504F240D
:10015000E96E000E5020EA6EEECF51F0F0D712009B
:100160000450000A08E10550000A05E1FF0E006E88
:100170007F0E016E57D00D6A096A086A015000109F
:10018000D8B4000C015005180A6E0ABE0D1E0B6A89
:1001900005AE05D0041E051E042AD8B4052A01AEFA
:1001A00005D0001E011E002AD8B4012A01500510F6
:1001B0000A6E0ABE10D083DF0BB020D00DAE000C4B
:1001C000001E011E002AD8B4012A081E091E082A92
:1001D000D8B4092A000C05AE0DD001BE07D00150DD
:1001E000096E0050086E016A006AE8D7016A006A69
:1001F000002A000C011E001E0B2ADDD7082AD8B4E5
:10020000092A0450085CD8A4D9D70550095CD8A4A1
:10021000D5D7096A086A002AD8B4012A01AECED718
:060220000000FF0C1200BB
:0C0226000E0E0D6E0D2EFED70000120013
:100232000FD0800E4F6E19D0C00E4F6E16D0940E96
:100242004F6E13D0D40E4F6E10D0800E4F6E0DD065
:100252004F50010AEEE04F50020AEEE04F50030AFF
:10026200EEE04F50040AEEE0F0D75004006E4F501B
:10027200002600C04FF000C055F0E2DE2590536A20
:1002820053505124E96E000E5220EA6EEE520BE0FA
:1002920053505124E96E000E5220EA6EEECF54F014
:0A02A20040DF532AEDD7258012003B
:1002AC00160E3B6E010E3C6E540E3D6E000E3E6EF5
:1002BC00FF0E376EFF0E386E000E396E000E3A6E62
:1002CC00FF0E436EFF0E446E000E456E000E466E22
:1002DC00FF0E3F6EFF0E406E000E416E000E426E22
:1002EC00AC8A900EAB6E948E949C9EAA03D0AECF2B
:0602FC0000F0FBD7120028
:10030200949A94989490949294949496829A8298BF
:10031200829682948292829085DE84DE83DE82825D
:100322008280828A8ADE829A7DDE828A86DE829A52
:1003320079DE828A82DE829A75DE8290828A7DDE10
:10034200829A70DE828A79DE829A82928286828A9A
:1003520074DE829A67DE82968280828A6EDE829A5A
:100362008290828A6ADE829A5DDE828A66DE829A62
:100372008280828A62DE829A55DE8290828A5DDE85
:10038200829A8286828482828280828A56DE829ADF
:0603920049DE2580120087
:10039800FF0E216EFF0E226EFF0E236EFF0E246EDF
:1003A800C26A151C006E0050C116070EC012C08E1E
:0403B800C2801200ED
:1003BC00B886B06ACF0EAF6EAC8472DF9CDFE6DF1E
:1003CC000C0E556E38DE010E4F6E010E506E160E71
:1003DC00516E000E526E27DF0B0E0B6E260E0C6E3E
:1003EC005D0E0D6E0D2EFED70C2EFCD70B2EFAD7F4
:1003FC00000000000C0E556E1EDE010E556E1BDE4D
:02040C001200DC
:10040E000900F5CFE6FF0006FBE10106F9E1120057
:10041E004BC0E1FF4CC0E2FF410EE66E010E4B24D5
:10042E004D6E000E4C204E6EE80E046E030E056EE1
:10043E0047C000F048C001F08CDE300E00264DC0E3
:10044E00E1FF4EC0E2FF00C0E6FF020E4B244D6EF0
:10045E00000E4C204E6E640E046E000E056E47C0EC
:10046E0000F048C001F075DE0A0E046E000E056E37
:10047E0070DE08C000F009C001F0300E00264DC03D
:10048E00E1FF4EC0E2FF00C0E6FF030E4B244D6EAF
:10049E00000E4C204E6E0A0E046E000E056E47C006
:1004AE0000F048C001F055DE0A0E046E000E056E17
:1004BE0050DE08C000F009C001F0300E00264DC01D
:1004CE00E1FF4EC0E2FF00C0E6FF040E4B244D6E6E
:1004DE00000E4C204E6E0A0E046E000E056E47C0C6
:1004EE0000F048C001F035DE08C000F009C001F090
:1004FE00300E00264DC0E1FF4EC0E2FF00C0E6FF09
:10050E00050E4B24E16E000E4C20E26E420EE66E9E
:10051E00060E4B24E16E000E4C20E26E430EE66E8C
:10052E00070E4B244D6E000E4C204E6EE80E046EE0
:10053E00030E056E49C000F04AC001F00ADE300E0F
:10054E0000264DC0E1FF4EC0E2FF00C0E6FF080EE0
:10055E004B244D6E000E4C204E6E640E046E000E3B
:10056E00056E49C000F04AC001F0F3DD0A0E046EBC
:10057E00000E056EEEDD08C000F009C001F0300E71
:10058E0000264DC0E1FF4EC0E2FF00C0E6FF090E9F
:10059E004B244D6E000E4C204E6E0A0E046E000E55
:1005AE00056E49C000F04AC001F0D3DD0A0E046E9C
:1005BE00000E056ECEDD08C000F009C001F0300E51
:1005CE0000264DC0E1FF4EC0E2FF00C0E6FF0A0E5E
:1005DE004B244D6E000E4C204E6E0A0E046E000E15
:1005EE00056E49C000F04AC001F0B3DD08C000F04E
:1005FE0009C001F0300E00264DC0E1FF4EC0E2FFF3
:10060E0000C0E6FF0B0E4B24E16E000E4C20E26E96
:10061E00440EE66E0C0E4B24E16E000E4C20E26E84
:10062E004F0EE66E0D0E4B24E16E000E4C20E26E68
:10063E004B0EE66E0E0E4B24E16E000E4C20E26E5B
:10064E00E66A4BC04FF04CC050F06BDD010E4F6EA2
:10065E00010E506E4BC051F04CC052F0E3DD020E55
:10066E000B6E040E0C6EBA0E0D6E0D2EFED70C2EEA
:0A067E00FCD70B2EFAD70000120083
:10068800C26A151C006E0050C116070EC012C08E3B
:1006980047C000F000360090003600900050C212AB
:1006A800C280BDDDC282C2A201D0FDD7C4CF01F095
:0E06B800006AC3500012000E0112C290120020
:1006C60088EC03F078DE476ADCDF00C033F001C057
:1006D60034F0010E476ED5DF00C035F001C036F0AC
:1006E60033C047F034C048F000C049F001C04AF0BA
:0E06F600260E4B6E000E4C6E8FDEE5D7FFD742
:1007100010EE15F00C0E006E010E016E040EF66E5A
:0E072000070EF76E000EF86E07EC02F01200E6
:0107040030C4
:0B0705006869206D6F68616D6564001D
:020000040030CA
:0D000100021F1EFF8381FF0FC00FE00F40A4
:00000001FF
